{
  "_format": "hh-sol-artifact-1",
  "contractName": "SecretNumber",
  "sourceName": "contracts/SecretNumber.sol",
  "abi": [
    {
      "inputs": [],
      "stateMutability": "nonpayable",
      "type": "constructor"
    },
    {
      "inputs": [
        {
          "internalType": "uint8",
          "name": "secretNumber",
          "type": "uint8"
        }
      ],
      "name": "changeOwner",
      "outputs": [],
      "stateMutability": "payable",
      "type": "function"
    },
    {
      "inputs": [],
      "name": "owner",
      "outputs": [
        {
          "internalType": "address",
          "name": "",
          "type": "address"
        }
      ],
      "stateMutability": "view",
      "type": "function"
    }
  ],
  "bytecode": "0x60806040527f763a7e0ee79faefad826c47a503fa6ee5c67f35d622ef6580ba47c2bb991c70760001b60005534801561003757600080fd5b5033600160006101000a81548173ffffffffffffffffffffffffffffffffffffffff021916908373ffffffffffffffffffffffffffffffffffffffff1602179055506101f3806100886000396000f3fe6080604052600436106100295760003560e01c80638da5cb5b1461002e578063e3d1240314610085575b600080fd5b34801561003a57600080fd5b506100436100b6565b604051808273ffffffffffffffffffffffffffffffffffffffff1673ffffffffffffffffffffffffffffffffffffffff16815260200191505060405180910390f35b6100b46004803603602081101561009b57600080fd5b81019080803560ff1690602001909291905050506100dc565b005b600160009054906101000a900473ffffffffffffffffffffffffffffffffffffffff1681565b670de0b6b3a764000034146100f057600080fd5b60005481604051602001808260ff1660ff1660f81b81526001019150506040516020818303038152906040528051906020012014156101ba5733600160006101000a81548173ffffffffffffffffffffffffffffffffffffffff021916908373ffffffffffffffffffffffffffffffffffffffff1602179055503373ffffffffffffffffffffffffffffffffffffffff166108fc670de0b6b3a76400009081150290604051600060405180830381858888f193505050501580156101b8573d6000803e3d6000fd5b505b5056fea2646970667358221220aac2f7cd9f060a2832720aec3a45854d8eaaf51dcdb02fd96aa1e07393cd608064736f6c63430006000033",
  "linkReferences": {},
  "deployedLinkReferences": {}
}